:1000000093C50000ADC50000ABC50000A9C5000048
:10001000A7C50000A5C50000A3C50000A1C500003C
:100020009FC500009DC500009BC5000099C500004C
:1000300097C5000095C5000093C5000091C500005C
:100040008FC500008DC500008BC5000089C500006C
:1000500087C5000085C500000C94F41481C500001C
:100060007FC500007DC500007BC5000079C500008C
:1000700077C5000075C5000073C5000071C500009C
:100080006FC500006DC500000C94B11469C5000077
:1000900067C5000065C5000063C5000061C50000BC
:1000A0005FC500005DC500005BC5000059C50000CC
:1000B00057C5000055C5000053C5000051C50000DC
:1000C0004FC500004DC500004BC5000049C50000EC
:1000D00047C5000045C5000043C5000041C50000FC
:1000E0003FC500003DC500000C947D0D39C50000E2
:1000F00037C5000035C5000033C5000031C500001C
:100100002FC500002DC500002BC5000029C500002B
:1001100027C5000025C5000023C5000021C500003B
:100120001FC500001DC500001BC5000019C500004B
:1001300017C5000015C5000013C5000011C500005B
:100140000FC500000DC500000BC500000C948F15F5
:1001500007C5000005C5000003C5000001C500007B
:10016000FFC40000FDC40000FBC40000F9C400008F
:10017000F7C40000F5C40000F3C40000F1C400009F
:10018000EFC40000EDC40000EBC40000E9C40000AF
:10019000E7C40000E5C40000E3C40000E1C40000BF
:1001A000DFC40000DDC40000DBC40000D9C40000CF
:1001B000D7C40000D5C40000D3C40000D1C40000DF
:1001C000CFC40000CDC40000CBC40000C9C40000EF
:1001D000C7C40000C5C40000C3C40000C1C40000FF
:1001E000BFC40000BDC40000BBC40000B9C400000F
:1001F000B7C400000C940F28B3C400002E035200B3
:1002000065007600450020005200650062006F0026
:100210006F0074006500640020002800690063001E
:1002200065006D0061006E00290000001C034300A2
:10023000680061006D0065006C0065006F006E0075
:100240004D0069006E006900000004030904090202
:100250003E00020100C03209040000010202010058
:1002600005240010010424020605240600010705E8
:1002700082030800FF09040100020A0000000705CC
:100280000402100005070583021000051201100189
:1002900002000008EB03442001000102DC01930688
:1002A0000000940695069606970689068A0690062B
:1002B00091068E068F0692068D06000404017316C1
:1002C0000000AA1662177517791789067A17BF1AE0
:1002D000D21A1E1B231B111B191B4000070073168B
:1002E0000000AA166D177517791789067A17BF1AB5
:1002F000D21A1E1B231B111B191B5000070073165B
:100300000000AA1671177517791789067A17BF1A90
:10031000D21A1E1B231B111B191BA40007007316E6
:100320000000AA16261B5A1B5E1B89065F1BA71F0F
:10033000C31FFA1FFF1FED1FF51F000404007316F3
:100340000000AA16401B5A1B5E1B89065F1BA71FD5
:10035000C31FFA1FFF1FED1FF51F001004007316C7
:100360000000AA16052312235E1B8906B721A71FCA
:10037000C31FFA1FFF1FED1FF51F000404000043F9
:100380004C4F5345440000000000000000000000F6
:10039000000000000000000000000000000000015C
:1003A0004D465F554C5452414C494748540000005B
:1003B000000000000000000000000000000000003D
:1003C000024D465F554C5452414C494748545F4595
:1003D00056315F383042000000000000000000008D
:1003E00000034D465F554C5452414C494748545FB9
:1003F0004556315F313634420000000000000000F5
:100400000000044D465F434C41535349435F314B19
:1004100000000000000000000000000000000000DC
:10042000000000054D465F434C41535349435F3440
:100430004B00000000000000000000000000000071
:1004400000000000064D465F444554454354494F63
:100450004E0000000000000000000000000000004E
:100460000000000000010000010001010000010186
:100470000001000001000101000100000101000075
:100480000100010100000101000100000101000064
:100490000100010100010000010001010000010153
:1004A0000001000001000101000100000101000045
:1004B0000100010100010000010001010000010133
:1004C0000001000001010000010001010000010124
:1004D0000001000001000101000100000101000015
:1004E0000100010100000101000100000101000004
:1004F00001000101000100000100010100000101F3
:1005000000010000010100000100010100000101E3
:1005100000010000010001010001000001010000D4
:1005200001000101000100000100010100000101C2
:1005300000010000010001010001000001010000B4
:1005400001000101000001010001000001010000A3
:100550000100010100010000010001010000010192
:100560000001000001008040C020A060E010905019
:10057000D030B070F0088848C828A868E8189858A3
:10058000D838B878F8048444C424A464E414945497
:10059000D434B474F40C8C4CCC2CAC6CEC1C9C5C43
:1005A000DC3CBC7CFC028242C222A262E212925279
:1005B000D232B272F20A8A4ACA2AAA6AEA1A9A5A43
:1005C000DA3ABA7AFA068646C626A666E616965637
:1005D000D636B676F60E8E4ECE2EAE6EEE1E9E5EE3
:1005E000DE3EBE7EFE018141C121A161E11191513A
:1005F000D131B171F1098949C929A969E919995913
:10060000D939B979F9058545C525A565E515955506
:10061000D535B575F50D8D4DCD2DAD6DED1D9D5DB2
:10062000DD3DBD7DFD038343C323A363E3139353E8
:10063000D333B373F30B8B4BCB2BAB6BEB1B9B5BB2
:10064000DB3BBB7BFB078747C727A767E7179757A6
:10065000D737B777F70F8F4FCF2FAF6FEF1F9F5F52
:10066000DF3FBF7FFF434C4F534544000000000075
:10067000000000000000000000000000000000007A
:10068000000000000052414E444F4D5F5549440068
:10069000000000000000000000000000000000005A
:1006A00000000000005549445F4C4546545F494EE8
:1006B0004352454D454E540000000000000000002C
:1006C00000000000005549445F52494748545F49C3
:1006D0004E4352454D454E540000000000000000BE
:1006E00000000000005549445F4C4546545F4445B6
:1006F0004352454D454E54000000000000000000EC
:1007000000000000005549445F52494748545F4487
:10071000454352454D454E54000000000000000086
:1007200000000000005357495443484341524400DD
:1007300000000000000000000000000000000000B9
:100740000000000000524541444F4E4C590000004B
:100750000000000000000000000000000000000099
:100760000000000000253032782530327825303204
:100770007825303278004D616E75666163747572EC
:1007800065722049443A20253032780D0A46616D61
:10079000696C7920636F64653A2025640D0A4465AD
:1007A0006E7369747920636F64653A2025640D0A5D
:1007B0004D4C4320436F64653A2025640D0A507206
:1007C0006F647563742076657273696F6E3A202565
:1007D000640D0A466C617368206D656D6F727920D7
:1007E00073697A653A2025644D62697473202825FF
:1007F000644B427974657329002530327825303294
:1008000078253032782530327800253575206D56C0
:100810000025750025750052414E444F4D00436838
:10082000616D656C656F6E4D696E692D25732076FF
:1008300025642E2564202825733A20257329000D70
:100840000A000D0A000D0A000D0A000D0A000D0A2B
:1008500000643130303A4F4B0000000000000000CF
:100860000000000000000000000000000000000088
:100870000000653130313A4F4B20574954482054DD
:100880004558540000000000000000000000000077
:100890000000006E3131303A57414954494E4720EB
:1008A000464F5220584D4F44454D00000000000077
:1008B00000000000C83230303A554E4B4E4F574E74
:1008C00020434F4D4D414E44000000000000000009
:1008D0000000000000C93230313A494E56414C49BF
:1008E0004420434F4D4D414E442055534147450010
:1008F000000000000000CA3230323A494E56414CE6
:10090000494420504152414D455445520000000099
:100910000000000000000056455253494F4E0000B1
:10092000000000000000000000000000001D0E4359
:100930004F4E464947000000000000000000004EF6
:100940000E0000450E400E55494400000000000016
:1009500000000000000000000000000D0FE40E4148
:1009600054514100000000000000000000000000A1
:10097000000000790E530E53414B000000000000B0
:100980000000000000000000000000CA0EAB0E5284
:100990004541444F4E4C590000000000000000004B
:1009A000000000600F540F55504C4F4144000000B0
:1009B00000000000000000730F0000000000004471
:1009C0004F574E4C4F41440000000000000000789B
:1009D0000F00000000000052455345540000000085
:1009E000000000000000007D0F0000000000005526
:1009F00050475241444500000000000000000088BC
:100A00000F0000000000004D454D53495A450000BD
:100A100000000000000000000000000000930F55DF
:100A2000494453495A4500000000000000000000FE
:100A30000000000000AB0F425554544F4E00000020
:100A400000000000000000C10F0000CD0FC60F42E3
:100A50005554544F4E5F4C4F4E470000000000D697
:100A60000F0000E20FDB0F53455454494E4700007E
:100A70000000000000000000000000F00FEB0F433A
:100A80004C4541520000000000000000000000F949
:100A90000F00000000000048454C5000000000001E
:100AA00000000000000000FC0F00000000000052E9
:100AB0005353490000000000000000000000000047
:100AC00000000000003B10505744000000000000F0
:100AD000000000000000000000000000006E104454
:100AE0004554454354494F4E0000000000000000AB
:100AF0000000002A11F2105350495F464C41534800
:100B0000494E464F0000004A1100000000791100D4
:100B100000000000000000000000000000000000D5
:100B2000000000000000000011241FBECFEFCDBF69
:100B3000DFE2DEBF10E2A0E0B0E2E2E9FDE502C0E4
:100B400005900D92AC3DB107D9F727E2ACEDB0E2CC
:100B500001C01D92AF38B207E1F703D00C94C72E45
:100B600063C068D0C2D1A6D63BD7FFD00E94BE0DCD
:100B700039D1FED581E0809300021092010292E00B
:100B80009093020293E0909304028093200288E302
:100B900080932102B9D0C1E0F5D7E091E621F09130
:100BA000E7210995E091EC21F091ED2109958091E3
:100BB0000C0A80FFF1CFC0930C0A2AD1FCD7DFD5F5
:100BC00016D7EACF292F30E02230310559F02330F3
:100BD000310569F021303105F9F482E190E02CE82B
:100BE00032E01EC08EE390E02EE432E019C088238C
:100BF00049F0813061F0823079F48EE290E02CEFA0
:100C000031E00EC084E090E02AE432E009C08CE1DB
:100C100090E02CE232E004C080E090E020E030E0A0
:100C2000FA012083318308951F920F920FB60F921D
:100C30001124FFCF8091780083FF0AC088E0809361
:100C4000780088ED84BF81E080938000FD95FEC030
:100C5000809150008660809350008091510081FF08
:100C6000FCCF8091510082FFFCCF1092560081E0B2
:100C70008093600098ED94BF8093400023ED30E3B3
:100C80002093260A3093270A96E09093000A8093D7
:100C90004300809300048091CC0188608093CC0154
:100CA000089588ED84BF81E080937900089588EDF0
:100CB00084BF8BE18093800008958BEC8093520079
:100CC000809150008860809350008091510083FF94
:100CD000FCCF84EC8093550080915000806180931C
:100CE00050008091510084FFFCCF0895E0E4F0E0D3
:100CF00084818E7F8483E0E5F0E080818F7E808335
:100D00008081877F8083089587E08093A200789414
:100D10000895089580E090E0089508950895089555
:100D200008950895089508950895089508950895DB
:100D3000CF93DF93E0910120F0910220828390E233
:100D4000899FB001112462567D4F40E250E082EE4F
:100D500091E20E942B2BC2EED1E2E881F981099544
:100D6000EE81FF81DF91CF910994E0910120F09114
:100D700002208281DDCF0F931F93E0910120F0913B
:100D800002208B019C01428167E08EE793E03CD614
:100D90001F910F9108951F93CF93DF931F92CDB7AB
:100DA000DEB79E012F5F3F4FAC0167E08EE793E017
:100DB00043D6182F882351F08981853021F49091F2
:100DC0000020911102C0B4DF01C010E0812F0F900C
:100DD000DF91CF911F9108959B01AC0167E08EE7F1
:100DE00093E051C608950C941D2B08950F931F9303
:100DF000CF938C01C62FCC2339F00E941D2BF80114
:100E000081938F01C150F7CFCF911F910F9108951A
:100E10000E941D2B0E941D2B0E941D2B0C941D2B2C
:100E2000CF93DF93EC0161507109DA01420F531F38
:100E3000FC01CF018C1B9D0BA417B50721F4108278
:100E4000DF91CF91089562307105C8F39D91392FDC
:100E500032953F703A3010F4305D01C0395C308318
:100E60009F709A3010F4905D01C0995C9183329626
:100E700062507109DECFCF93DF93EC01DA0120E0FD
:100E800030E05C91552351F111969C911197992373
:100E900039F12617370711F180ED850F8A3020F0E0
:100EA0008FEB850F8630E0F480ED890F8A3020F0DB
:100EB0004FEB490F4630A0F4E52FF0E0513408F035
:100EC000F797E295E07F913410F4982F01C0975383
:100ED0009E2B99932F5F3F4F1296D3CFC90102C02B
:100EE00080E090E0DF91CF910895CF93DF9300D021
:100EF00000D0CDB7DEB780E18093650692E0909395
:100F0000660698E0909365069AE1909361061092C8
:100F1000A6091092A70990EC9093A50998E19093E7
:100F2000A4098093660687ED8093A0098091A109AA
:100F300086FFFCCF80E48093A1098091A0091092E4
:100F4000A0098091A10986FFFCCF80E48093A109CC
:100F50008091A00990E19093650680FD43C0809147
:100F60004C2090914D20A0914E20B0914F2089832C
:100F70009A83AB83BC8380E137ED90E4809366066F
:100F80003093A0092091A10926FFFCCF9093A109DD
:100F90002091A0091092A0092091A10926FFFCCF61
:100FA0009093A1092091A0098093650627FFE6CFC1
:100FB00080E180936606FE013196CE01059620E41D
:100FC000E817F90761F031913093A0093091A10938
:100FD00036FFFCCF2093A1093091A009F1CF80E129
:100FE0008093650680E137ED90E480936606309348
:100FF000A0092091A10926FFFCCF9093A10920917F
:10100000A0091092A0092091A10926FFFCCF90937E
:10101000A1092091A0098093650627FFE6CF80E112
:10102000809366068FE98093A0098091A10986FFCD
:10103000FCCF80E48093A1098091A009E3EDF1E267
:1010400080E441E2E73DF40761F01092A00990913D
:10105000A10996FFFCCF8093A1099091A0099193DB
:10106000F0CF80E1809365068091D3218093D721D2
:101070008091D421282F2295269527702093D8215E
:101080008F718093D9219091D521392F3295369542
:1010900037703093DA219F719093DB219EEF980F88
:1010A000973028F01092DC211092DD210FC0213002
:1010B000C9F7825021E030E0A90102C0440F551F5A
:1010C0008A95E2F74093DC215093DD218091DC2169
:1010D0009091DD219695982F882797958795A0E088
:1010E000B0E08093DE219093DF21A093E021B093C4
:1010F000E1212496CDBFDEBFDF91CF9108950F93FC
:101100001F934115510509F479C08B0120E030E0AF
:1011100060910020662371F070E0615C7F4F762F54
:101120006627770F770F060F171F211D311D105FE0
:101130002F4F3F4FE12F60E1A7ED70E4609366060B
:10114000A093A009F091A109F6FFFCCF7093A1092B
:10115000F091A0091092A009F091A109F6FFFCCF2F
:101160007093A109F091A00960936506F7FFE6CF9F
:1011700060E16093660663E06093A0096091A10955
:1011800066FFFCCF60E46093A1096091A009109212
:10119000A0096091A10966FFFCCF60E46093A109FA
:1011A0006091A009E093A0096091A10966FFFCCFBE
:1011B00060E46093A1096091A0090093A0092091C7
:1011C000A10926FFFCCF20E42093A1092091A009CA
:1011D000FC01480F591F80E4E417F50761F01092F5
:1011E000A0099091A10996FFFCCF8093A10990914D
:1011F000A0099193F1CF80E1809365061F910F9133
:1012000008958F929F92AF92BF92CF92DF92EF920A
:10121000FF920F931F93CF93DF93FC01411551056C
:1012200009F41AC16B01E12CF12C2091002022233A
:1012300079F030E0215C3F4F322F2227330F330FFC
:10124000C20ED31EE11CF11C80E1D80EE11CF11C82
:10125000C0E0D1E020E137ED90E480E167EDE62EDB
:1012600073E5B72EA4E8AA2EB3E89B2EFD2CAC2D77
:10127000BE016C1971094617570708F4BA0180932B
:101280006606E092A009B091A109B6FFFCCF909349
:10129000A109B091A0091092A009B091A109B6FFCF
:1012A000FCCF9093A109B091A00920936506B7FFE8
:1012B000E6CF80936606B092A009B091A109B6FF6F
:1012C000FCCF9093A109B091A0091092A009B09110
:1012D000A109B6FFFCCF9093A109B091A009F092AB
:1012E000A009B091A109B6FFFCCF9093A109B091DC
:1012F000A0091092A009B091A109B6FFFCCF90936C
:10130000A109B091A0092093650620936606309349
:10131000A009B091A109B6FFFCCF9093A109B091AB
:10132000A0091092A009B091A109B6FFFCCF90933B
:10133000A109B091A00920936506B7FFE6CF80937D
:101340006606A092A009B091A109B6FFFCCF9093C8
:10135000A109B091A0091092A009B091A109B6FF0E
:10136000FCCF9093A109B091A0091092A009B0916F
:10137000A109B6FFFCCF9093A109B091A009A09359
:10138000A009A091A109A6FFFCCF9093A109A0916B
:10139000A009DF018F01060F171FA017B10761F029
:1013A0008D908092A0098090A10986FEFCCF909339
:1013B000A1098090A009F1CF2093650620936606CD
:1013C0003093A009A091A109A6FFFCCF9093A10999
:1013D000A091A0091092A009A091A109A6FFFCCF9D
:1013E0009093A109A091A00920936506A7FFE6CFDD
:1013F000809366069092A009A091A109A6FFFCCF58
:101400009093A109A091A0091092A009A091A1090F
:10141000A6FFFCCF9093A109A091A009F092A0098A
:10142000A091A109A6FFFCCF9093A109A091A009CA
:101430001092A009A091A109A6FFFCCF9093A10949
:10144000A091A00920936506461B570BC60ED71E18
:101450004115510509F00ACFDF91CF911F910F91EE
:10146000FF90EF90DF90CF90BF90AF909F908F90C4
:10147000089520910020222369F0822F90E0CF96DA
:10148000982F8827990F990FA0E0B0E0905FAF4F99
:10149000BF4F03C080E090E0DC01892F9927222311
:1014A00019F024E030E002C020E130E0BC01620F1E
:1014B000731F30E120E440E157EDE1E84093660618
:1014C0005093A009F091A109F6FFFCCF2093A10948
:1014D000F091A0091092A009F091A109F6FFFCCFAC
:1014E0002093A109F091A00930936506F7FFE6CF9C
:1014F00040936606E093A009F091A109F6FFFCCFA6
:101500002093A109F091A0099093A009F091A1095D
:10151000F6FFFCCF2093A109F091A0098093A009C8
:10152000F091A109F6FFFCCF2093A109F091A00949
:101530001092A009F091A109F6FFFCCF2093A10918
:10154000F091A0093093650601966817790709F0B4
:10155000B5CF0895FA0120910020211107C061152F
:1015600020E1720788F420E030E106C0611524E034
:10157000720750F420E034E0A901461B570BE41732
:10158000F50708F4AF013DDE81E00895FA012091EE
:101590000020211107C0611520E1720798F420E0B6
:1015A00030E106C0611524E0720760F420E034E009
:1015B000A901461B570BE417F50708F4AF019FDD9F
:1015C00081E0089580E00895FF920F931F93CF93D9
:1015D000DF93CDB7DEB7A097CDBFDEBF8130E9F492
:1015E000E091F221F091F321CE0101960995FF24BB
:1015F000F3940F2D10E08091002290E001970817DE
:1016000019070CF099C0EFDBE1E0F0E0EC0FFD1FF3
:10161000E00FF11F8083F394ECCF8230B9F5E091B5
:10162000F221F091F3218E010F5F1F4FC801099540
:1016300020910022F80191E08E2F801B8217F8F490
:10164000992339F0808191E08F3F09F090E08F5F1E
:1016500080833196F1CF843009F049C0E091F221C6
:10166000F091F3218E010F5F1F4FC8010995209162
:101670000022F80191E08E2F801B821770F1E0911B
:10168000F421F091F521C801099569C0833019F75B
:10169000E091F221F091F321CE010196099580911C
:1016A000002241E0815008F447C04423D9F3282F99
:1016B00030E0E1E0F0E0EC0FFD1FE20FF31F90815E
:1016C00041E09F3F09F040E0E1E0F0E0EC0FFD1F5A
:1016D000E20FF31F9F5F9083E5CF992331F0808164
:1016E00091E0811190E0815080833196C4CF8530A4
:1016F00051F5E091F221F091F321CE010196099587
:101700008091002241E08150B8F04423E1F3282F7A
:1017100030E0E1E0F0E0EC0FFD1FE20FF31F9081FD
:1017200041E0911140E0E1E0F0E0EC0FFD1FE20F3D
:10173000F31F91509083E7CFE091F421F091F521D0
:10174000CE010196A1CF863011F4D7D008C08730E2
:1017500031F49091012281E0892780930122A096A3
:10176000CDBFDEBFDF91CF911F910F91FF90089504
:10177000E0E0F6E080E4828388E1868B0895909132
:1017800008068091DC2096FD10C08A3050F08A3027
:10179000B9F4E0910120F0910220818115DF809160
:1017A000DC208F5F8093DC20089581508A3030F4F4
:1017B000E0910120F0910220808106DF1092DC2070
:1017C0000895CF936150710945E656E020E0CCE2E0
:1017D000FA01DC01CD013491311108C0273071F0DC
:1017E000CC9361507109CD01019608C06132710539
:1017F000A8F33D93319661507109ECCF2F5F405EA5
:101800005F4F283029F7FC011082CF910895811194
:1018100006C0E0910120F09102206083089581309C
:1018200029F4E0910120F091022061830895282F8E
:10183000CB0121110AC0E0910120F09102206081CA
:1018400020E2629FB00111240BC0213069F4E091C5
:101850000120F09102206181E0E26E9FB00111242D
:101860006B59794F0C943D2BFB0110820895EF9238
:10187000FF920F931F93CF93DF93D82F7B0105E641
:1018800016E0C0E0B801C7010E94342B892B29F46F
:101890006C2F8D2FBCDF81E006C0CF5F005E1F4F35
:1018A000C83081F780E0DF91CF911F910F91FF90B9
:1018B000EF9008954BE250E060E070E080E090E24D
:1018C0000C946B2E4BE250E060E070E080E090E220
:1018D0000C94182E883078F48093002025E0829FA5
:1018E000C00111248D5F9F4D8093012090930220B1
:1018F0003CDA81E0089580E008953091002029E0ED
:1019000045E02150B1F0832F90E001968770992730
:10191000382FBC016F5F7F4F469FF001479FF00D4E
:101920001124E050F04E5081552359F3D3DF81113B
:10193000C9CF0895FC018EE480838FE481838EE219
:10194000828380910020805D838314820895FC014E
:101950002181211105C080818053883008F4BACFDD
:1019600080E0089560E26093060650E15093060619
:1019700028E02093060694E09093060620938606BE
:101980009093860642E04093860631E030938606C7
:10199000809100208330A9F030F4813061F070F440
:1019A000609305060895853091F070F0863091F0CF
:1019B000873099F008955093050608952093050601
:1019C00008959093050608952093850608959093B1
:1019D00085060895409385060895309385060895F9
:1019E0008FE0809381068CE38093010608958091B7
:1019F000DE20809306061092DE208091DD20809309
:101A000086061092DD20AECF0F931F93FC01662354
:101A100079F094916150941309C0BF016F5F7F4FBB
:101A2000A801C9010E943D2B81E003C0B196EFCF10
:101A300080E01F910F910895CF92DF92EF92FF9275
:101A40001F93CF93DF93EC017A016901162F1123C5
:101A500089F0BE016F5F7F4FC7010E94342B115088
:101A6000892B31F4FE01C491F601C08381E003C0EB
:101A7000A196EDCF80E0DF91CF911F91FF90EF9085
:101A8000DF90CF900895CF930196CCE26623D1F0FA
:101A9000FC01DA01AD017491772341F02115310584
:101AA000A9F07D93319621503109F4CF623038F09E
:101AB0002115310559F0FD01C0834F5F5F4F615023
:101AC0008196E4CF232B11F0FA011082CF91089573
:101AD000EFEDF0E2A281B381A152BF4D16968C9337
:101AE0008281938101968F77992782839383808166
:101AF000918101968083918308951F920F920FB672
:101B00000F9211242F933F934F935F936F937F9383
:101B10008F939F93AF93BF93EF93FF938091A00A0E
:101B2000D7DFFF91EF91BF91AF919F918F917F91FF
:101B30006F915F914F913F912F910F900FBE0F903A
:101B40001F901895BC018CE290E20C949D28CF93D5
:101B5000DF93FC016491EC012196662331F08CE265
:101B600090E20E94EB28CE01F4CFDF91CF9108954F
:101B7000AB01BC018CE290E20C94C72880E2809318
:101B800062060895CF93DF938CE290E20E9454297D
:101B90000E9441248CE290E20E947029EC0197FDA2
:101BA00007C0F8D3811104C08C2FDF91CF9188C575
:101BB000DF91CF91089580916521813079F028F0EF
:101BC0008230D1F0833009F12CC08091680685FF06
:101BD00028C084E180932B2081E00BC080912B20D2
:101BE000815080932B2081111CC067D80E94D92777
:101BF00082E08093652115C08091680685FD11C043
:101C000084E180932B2083E0F4CF80912B208150BE
:101C100080932B20811105C00E949E2767D81092C7
:101C20006521FAD44AC6089508958CE290E20C9496
:101C300078288CE290E20C94C4292BED30E23F939B
:101C40002F932CEC30E23F932F931F9223E02F939E
:101C50001F9221E02F9343ED50E25F934F934EE1AB
:101C600058E05F934F932F931F929F938F930E94FF
:101C7000692B8DB79EB740968DBF9EBF85E60895B0
:101C800060E071E078D885E60895CB0184D8882398
:101C900019F018DE84E608958AEC089560E071E09A
:101CA0009BD885E608950F931F93CF93DF9300D0C1
:101CB00000D0CDB7DEB78C01E091FA21F091FB2185
:101CC000CE01039609959B818C819A83898322E0BA
:101CD00030E0AE014F5F5F4F60E071E0C801A0D817
:101CE00085E62496CDBFDEBFDF91CF911F910F9186
:101CF00008950F931F93CF93DF9300D0CDB7DEB736
:101D00008B0119821A82AB0162E070E0CE0101966C
:101D1000B2D80297C1F4F80101900020E9F7319799
:101D2000E01BF10B339730F089819A81982789273E
:101D3000982702C0898190E0E091FC21F091FD217B
:101D4000099584E601C08AEC0F900F90DF91CF9146
:101D50001F910F9108950F931F93CF93DF931F92BD
:101D6000CDB7DEB78C01E091F621F091F721CE01DD
:101D70000196099521E030E0AE014F5F5F4F60E0D2
:101D800071E0C8014DD885E60F90DF91CF911F918A
:101D90000F910895CF93DF931F92CDB7DEB7AB01BC
:101DA00061E070E0CE01019666D8019741F4E091C0
:101DB000F821F091F9218981099584E601C08AEC26
:101DC0000F90DF91CF910895EF92FF920F931F93A1
:101DD000CF93DF93CDB7DEB7A097CDBFDEBF7C0139
:101DE000E2EEF1E2068D10E00088F189E02DCE01EF
:101DF000019609959801AE014F5F5F4F60E071E079
:101E0000C7010ED885E6A096CDBFDEBFDF91CF918A
:101E10001F910F91FF90EF900895DF92EF92FF9244
:101E20000F931F93CF93DF93CDB7DEB7A097CDBFAE
:101E3000DEBF7B010091002210E067E178E0C7017E
:101E40000E94342B892BD1F4D12CED2CF12CE016EF
:101E5000F10658F40E94F306E1E0F0E0EC0FFD1FFC
:101E6000EE0DFF1D8083D394F0CFE091F421F0912B
:101E7000F521CE010196099584E60BC0A70160E229
:101E800070E0CE0101960E943B070817190769F31D
:101E90008AECA096CDBFDEBFDF91CF911F910F914D
:101EA000FF90EF90DF900895FC018091012288233C
:101EB00011F081E301C080E38083118285E60895FB
:101EC000FB01818181110DC08081813321F481E08A
:101ED0008093012204C0803321F41092012284E611
:101EE00008958AEC08958AEA9AE023D28EE608954E
:101EF00086EC9AE039D28EE60895E0ECF4E0818138
:101F00008E7F81830E949E270E94510684E6089559
:101F1000E0ECF4E081818E7F81830E949E270E9405
:101F2000570684E60895E2EEF1E2258D2F93248D85
:101F30002F9324E138E03F932F9321E02F931F92BA
:101F40009F938F930E94692B8DB79EB708968DBF84
:101F50009EBF85E60895209100221F922F9321E1D4
:101F600038E03F932F9321E02F931F929F938F93FD
:101F70000E94692B8DB79EB708968DBF9EBF85E6E0
:101F8000089560E071E01DDC85E6089540E051E0D1
:101F9000BC0180E04CDC85E6089580E068DC8823A5
:101FA00019F090DC84E608958AEC089560E071E011
:101FB00008DC85E6089540E051E0BC0181E037DCB3
:101FC00085E6089581E053DC882319F07BDC84E604
:101FD00008958AEC089560E071E0ACDC85E6089530
:101FE000CB01B5DC882319F06DDC84E608958AEC1A
:101FF00008953FDA84E60895BF92CF92DF92EF9280
:10200000FF920F931F93CF93DF93EC01EE24EA949A
:10201000F12C07E119E09CE2B92E6801B8018BEDC3
:1020200090E20E94342B892BC9F0DE01F601249145
:10203000ED012196C7010197211105C0BC927C01D9
:10204000085E1F4FEACFF1E2EF16F104B8F32C93CC
:10205000DE012FEFC21AD20A7C01E8CF2197188245
:1020600085E6DF91CF911F910F91FF90EF90DF9068
:10207000CF90BF900895FC018091200280688093EA
:1020800020028091230280FFFCCF81E08093230215
:10209000A0911002B0911102AE5BB109B7FF02C06E
:1020A000A0E0B0E029E637E54BE050E00E94C12A0D
:1020B000AA27BB279F938F938AE098E09F938F93E3
:1020C00081E08F931F92FF93EF930E94692B8DB74E
:1020D0009EB708968DBF9EBF85E608950F931F9308
:1020E000CF93DF9300D000D0CDB7DEB7182F092FE4
:1020F00044E050E068E071E0CE01019600D88C81A8
:102100001F928F938B811F928F938A811F928F933F
:1021100089811F928F9389EF97E09F938F9381E03E
:102120008F931F920F931F930E94692BCDBFDEBF29
:1021300085E62496CDBFDEBFDF91CF911F910F9131
:1021400008958F929F92AF92BF92CF92DF92EF92BB
:10215000FF920F931F93CF93DF93CDB7DEB7C35199
:10216000D140CDBFDEBF7C016B018A019E012F5F94
:102170003F4F590183E191E0D901FC011D92319754
:10218000E9F7B701C9010E94592BF5015701480130
:102190008E189F088C0C9D1CC5018E199F098017F5
:1021A00091077CF4419194012A0D3B1DC801B601B1
:1021B0000E94822A261B370B2427D5012D935D010F
:1021C000EBCFCD5EDE4FCDBFDEBFDF91CF911F9154
:1021D0000F91FF90EF90DF90CF90BF90AF909F90C6
:1021E0008F900895EF92FF920F931F93CF93DF93F9
:1021F000EC0140E150E060E070E00E947F0840ECBC
:1022000050E060E170E1CE0140960E947F0860EDF1
:1022100070E0CE010E94022040ED50E069EB71EECB
:10222000CE018FDF8E017E0182EDE80EF11CF801F8
:1022300061918F018CE290E20E94EB280E151F0540
:10224000B1F7188284E6DF91CF911F910F91FF9033
:10225000EF900895CF93DF93CDB7DEB7C85CD10977
:10226000CDBFDEBF48EC50E06FEF70E0CE010196CD
:102270000E94622B40EC50E060E170E1CE010196DB
:102280000E94010984E6C853DF4FCDBFDEBFDF9156
:10229000CF910895E3EDF1E226852F9325852F93C5
:1022A00024852F9323852F9322852F9321852F9388
:1022B00020851F922F9327811F922F9326811F9293
:1022C0002F9325811F922F9324811F922F9326E70E
:1022D00037E03F932F9321E02F931F929F938F938B
:1022E0000E94692B8DB79EB746968DBF9EBF85E62F
:1022F0000895E3EDF1E223811F922F9322811F9233
:102300002F9321811F922F9320811F922F9325E6D7
:1023100037E03F932F9321E02F931F929F938F934A
:102320000E94692B8DB79EB70E968DBF9EBF85E626
:10233000089521E0209373212093722124E12093BA
:10234000702125E030E020936E2130936F211092B0
:1023500068211092692110926A2110926B2180935A
:10236000662190936721089527E02093732124E646
:1023700030E020936E2130936F21109268211092EB
:10238000692110926A2110926B21809366219093AB
:1023900067210895CF93909173219530B9F130F46E
:1023A000933001F118F5913068F432C1973009F497
:1023B0009FC008F440C0983009F49FC0993009F4D8
:1023C00024C126C1813031F410926C2110926D210C
:1023D00083E0EFC0843011F466E085C0883109F0F5
:1023E000EAC013C18093712184E0E3C090E0409182
:1023F00071212FEF30E0241B31098217930721F45C
:1024000085E0D7C0891741F165E166C020916C2154
:1024100030916D21A9014F5F5F4F40936C21509324
:102420006D21F901EE5FFD4D80834038510509F0C3
:10243000C2C086E0BEC02091712190917221291303
:1024400043C0E2E0F2E222E832E290E02E173F07DA
:10245000C9F24191940FFACF60916821709169217E
:10246000E0916621F091672140E850E082E092E23D
:102470000995C82F882311F1809172218F5F809375
:1024800072218091682190916921A0916A21B09177
:102490006B2180589F4FAF4FBF4F8093682190931F
:1024A0006921A0936A21B0936B2166E08CE290E2EF
:1024B0000E94EB2882E080937321ABC068E18CE23C
:1024C00090E20E94EB280EC030E0892F90E0019747
:1024D0002817390739F466E08CE290E20E94EB2875
:1024E00082E067C068E18CE290E20E94EB288DC038
:1024F000853119F41092722106C0883109F46CCF2D
:10250000863009F05AC0809172218F5F80937221CA
:102510006091682170916921E0916621F0916721B5
:1025200040E850E082E092E20995C82F8823D9F173
:1025300061E08CE290E20E94EB28609172218CE2D3
:1025400090E20E94EB286091722160958CE290E20B
:102550000E94EB2860E870E082E092E209DBE2E0B2
:10256000F2E282E892E260E08E179F0719F0219173
:10257000620FFACF8CE290E20E94EB2880916821F2
:1025800090916921A0916A21B0916B2180589F4F51
:10259000AF4FBF4F8093682190936921A0936A2128
:1025A000B0936B2136C064E08CE290E20E94EB288D
:1025B00089E080937321C1E02CC08531E1F761E0AF
:1025C0008CE290E20E94EB28609172218CE290E212
:1025D0000E94EB286091722160958CE290E20E944B
:1025E000EB2860E870E082E092E2C2DAE2E0F2E238
:1025F00060E082E2E238F80719F08191680FF9CFC4
:102600008CE290E20E94EB28D6CF10927321D3CFB8
:10261000C0E08C2FCF91089580917321813019F003
:10262000873029F1089580916E2190916F219C014E
:102630002150310920936E2130936F21892B31F580
:10264000809170219FEF980F90937021882331F033
:1026500065E18CE290E20E94EB2802C010927321A7
:1026600085E090E080936E2190936F210895809192
:102670006E2190916F219C012150310920936E2190
:1026800030936F21892B11F4109273210895E1E5A5
:10269000F8E020E030E09491981309C041E2429FB5
:1026A000C001439F900D11248E5A974F08952F5FBC
:1026B0003F4FB1962630310571F780E090E00895E4
:1026C000CF92DF92EF92FF920F931F93CF93982FA9
:1026D0009F7D91549A3160F090ED980F9A3040F0C0
:1026E0008F3531F0982F9D7F9D3311F08032C9F4E2
:1026F0009FE9980F9A3108F4805220917921309106
:102700007A212F3F310508F0CFC0A9014F5F5F4FFD
:102710004093792150937A21F901EE5FFD4D80833A
:10272000C3C08D3009F095C0E0917921F0917A21F4
:10273000EE5FFD4D10821092792110927A218091E6
:1027400078218111B1C080910222982F9F7D09F4D8
:1027500095C08D7F8D3309F491C0E2E0F2E27F01F4
:10276000C191CC2331F0CF3321F0CD3311F0C03201
:10277000B1F7F701108287E1C82E89E0D82E00E07A
:1027800010E0B60182E092E20E94342B892B09F01E
:1027900056C010920222CF3349F488E1809FF001A5
:1027A000819FF00D1124E35DF64F18C0B7016F5FF4
:1027B0007F4FCD3349F488E1809FF001819FF00D78
:1027C0001124E55DF64F20C0C11113C088E1809F40
:1027D000F001819FF00D1124E95DF64F25913491B0
:1027E0002115310509F44DC082E092E2F901099505
:1027F00014C0C03209F045C088E1809FF001819F7C
:10280000F00D1124E75DF64F259134912115310526
:10281000C1F182E092E2F90109958F3F99F581E0DB
:10282000809378212EB13FB18091080490910904E2
:10283000822B932B809376219093772135C00F5F65
:102840001F4FF8E1CF0ED11C0631110509F099CFC9
:1028500015C0883061F48091792190917A21009798
:1028600019F101978093792190937A211DC08B31C2
:10287000D9F41092792110927A2116C088ECC0E028
:1028800002C089ECC1E003DF62D98EE498E05FD931
:10289000CC2351F080910222882331F082E092E231
:1028A00051D98BE498E053D981E0CF911F910F91DA
:1028B000FF90EF90DF90CF9008958091782188234A
:1028C00089F1E0910120F0910220238134812115CA
:1028D000310541F14EB15FB1809108049091090436
:1028E000842B952B4091762150917721841B950B59
:1028F00064E670E00E946E2A6217730798F01092E7
:1029000078218BECC4DE23D988E498E020D9E091CB
:102910007421F0917521309729F009951092742156
:10292000109275210895A0E2B6E082E011968C9392
:10293000119715968C931597E0E4F8E010A211A278
:102940008DE291E086A397A38FEF9FEF80A791A7D9
:1029500081E0808398E8938393E097831A968C9321
:1029600008951F920F920FB60F9211248F939F9389
:10297000EF93FF9382E093E28093872190938821E5
:1029800082E893E2809385219093862110928021A2
:1029900010927F2110927B2110928321109284212A
:1029A00010927E21E0E4F8E0138286E990E086ABA5
:1029B00097AB8AE190E080AF91AFE0E4F9E010A23C
:1029C00011A28FEF9FEF86A397A389E883838EE000
:1029D000808310922A06FF91EF919F918F910F9023
:1029E0000FBE0F901F9018951F920F920FB60F9267
:1029F00011242F933F938F939F93EF93FF93909185
:102A0000280680917F21957021E009F020E0880F51
:102A1000822B80937F2190917B21992309F46BC0B5
:102A2000982F9770973091F51092400880E180932D
:102A30004C081092430980917D21882319F08CEB7A
:102A400094E002C08CE794E0809366099093670954
:102A500010927C2181E080934C0983E080934609A9
:102A60008091832190918421877061F090918021E1
:102A70008F5F893011F09695FBCFE0918721F0911F
:102A80008821908381E08093892135C0982F9C70A4
:102A900091F191E0382F347082FD90E090937D2188
:102AA00080917E21811125C02091802126953111B0
:102AB00001C080E8282B2093802180918321909170
:102AC0008421019680938321909384218770992794
:102AD000892B89F4E0918721F0918821CF0101961B
:102AE0008093872190938821208381E080937E21A9
:102AF00002C010927E2190917B2181E089278093F2
:102B00007B2188E880934308FF91EF919F918F91FB
:102B10003F912F910F900FBE0F901F9018951F920D
:102B20000F920FB60F9211242F933F938F939F9381
:102B3000EF93FF9380917C21853009F45AC0B8F45B
:102B40008230B9F178F4882369F1813009F0C0C08E
:102B50008FE390E080936609909367098EE08093FD
:102B6000000827C0833051F18430B1F1B1C0883002
:102B700009F4A3C038F4863009F460C0873009F442
:102B80006DC0A6C0893009F49DC08A3009F0A0C08C
:102B900010924009109246091092000881E080933B
:102BA0008A2196C08FE790E0809366099093670929
:102BB0008FC080E48093450683E088C080E48093E2
:102BC000460684E080937C21E0918721F091882162
:102BD0008081809380217CC08091802180FF04C00F
:102BE00080E48093450603C080E48093460685E038
:102BF0006DC08091802190E480FF03C090934606D1
:102C000002C0909345068695809380218091812112
:102C100090918221019680938121909382219C0141
:102C200027703327232B11F486E050C02091832195
:102C30003091842182179307F1F529C0E091852115
:102C4000F09186218081882321F080E480934506DD
:102C500003C080E48093460687E038C0E091852178
:102C6000F09186218081882321F080E480934606BC
:102C700003C080E480934506209181213091822118
:102C800080918321909184212817390711F488E0DD
:102C90001DC03196E0938521F0938621E091872134
:102CA000F0918821CF01019680938721909388210C
:102CB00081818093802184E009C080E4809346066E
:102CC00089E004C080E4809346068AE080937C21FA
:102CD000FF91EF919F918F913F912F910F900FBE98
:102CE0000F901F901895CF93DF93E0E4F6E084E017
:102CF0008283128AC0E8D1E082E68E83A0E2B6E049
:102D000085E012968C93129781E050968C935097A1
:102D100082E052968C9352971A961C921A9783E0EF
:102D200019968C9398E598839AE5998390E491831A
:102D3000968381838683E0E0F8E08FE090E086A3CD
:102D400097A388E090E082A793A783E28183DF9135
:102D5000CF91E9CD80918921882309F457C0109241
:102D6000892182E080932106809326066091832149
:102D7000709184216115710521F1E091F021F091AC
:102D8000F12182E093E2099594FD08C0AC0123E0B3
:102D9000569547952A95E1F720E002C09F7E17C01F
:102DA000A22FB0E0A417B50790F4AE5FBC4DEC9134
:102DB000F0E0EB59FB4FE491A058BF4FEC932F5F2D
:102DC000EFCFE091EA21F091EB2109951AC000972D
:102DD000C1F08093832190938421109281211092DD
:102DE000822182E093E2809387219093882182E878
:102DF00093E2809385219093862181E080937C21CA
:102E000005C010924009109246098DDD80918A21FB
:102E1000882319F010928A2186CD089581E080934D
:102E2000952110929421109290211092922184E485
:102E300090E080938C2190938D2184E080938B216E
:102E40000895982F80919621882359F080919021A0
:102E5000811108C081E020918F21921718F080E045
:102E6000089581E008950F931F93CF93DF931F92EE
:102E7000CDB7DEB700919321000F000F005181E024
:102E80008093962110E0B8016D5F7F4F41E050E0E4
:102E90008FE891E20E947F08B8016C5F7F4F41E0AC
:102EA00050E0CE0101960E947F088981881F882703
:102EB000881F80938E21B2DF0F90DF91CF911F91F9
:102EC0000F9108951092962180E1809393218FEFC6
:102ED00080938F2110928E21A1CF84E18093932142
:102EE000C2CF89E280939321BECF81E08093952168
:102EF000089508958F929F92AF92BF92CF92DF92E2
:102F0000EF92FF920F931F93CF93DF93CDB7DEB76E
:102F1000A097CDBFDEBF8C01FC01808190919521EF
:102F2000923029F128F0933079F19430D1F17BC1BE
:102F3000292F2095217020939421992311F0863216
:102F400031F091E0823509F090E0892F01C081E0F5
:102F500080FF69C190918C2180918D21F80190832F
:102F6000818382E08093952180E190E0F8C22091F6
:102F7000942191E0211102C0863219F0823509F0C6
:102F800090E090FF3DC01CC02091942191E0211160
:102F900002C0863219F0823509F090E090FF61C0DE
:102FA0000FC020919421211102C0863231F091E0AE
:102FB000823509F090E0892F01C081E080FF36C1A1
:102FC00090918C2180918D21F8019083818381E003
:102FD000822713C08091922181113BC1F801808129
:102FE000803509F41AC108F044C1803309F447C19F
:102FF00090919621911195C081E08093952113C104
:103000008339D1F719821A821B821C8288E889834E
:1030100043E050E060E070E0CE0102960E947F083D
:10302000F8018181803259F1803709F052C0F801EE
:10303000928189819813F7C093818A819813F3C094
:1030400094818B819813EFC095818C819813EBC08C
:1030500080918B21808361E070E0C801D3D783E049
:1030600035C0853949F644E050E064E070E0CE01B7
:1030700001960E947F08F8018181803271F43981C4
:10308000F80130832A8121839B8192838C81838301
:10309000232792278927848396C08037D1F4F801AB
:1030A000928189819813BFC093818A819813BBC094
:1030B00094818B819813B7C095818C819813B3C08C
:1030C000108261E070E0C8019DD784E08093952173
:1030D000A1C0982F9F7009F0A6C082958F70825072
:1030E000E82EF12C84E090E06C01CE18DF0861E05E
:1030F00070E06C0F7D1F6E0D7F1DA601C8010E9440
:10310000592BF801EC0DFD1D99818A8189279B813E
:1031100089279C818927808385E090E08E199F090B
:1031200035C08C3309F4E2C108F050C08933A1F1F5
:103130008A3309F00BC1F801D180E280ED1408F464
:10314000B3C080919321D81608F0AEC0E81608F0FD
:10315000ABC080918E21811132C1F12C6D2D70E0B8
:10316000E61AF70AFFEFEF1AFF0AEE0CFF1CEE0C4F
:10317000FF1C660F771F660F771FA701C8010E940B
:103180007F08B701C8013ED7C7010296A3E0880FA8
:10319000991FAA95E1F7E3C1F8016181633008F056
:1031A00083C08091932170E0680F711D660F771FB7
:1031B000660F771F43E050E0C8010E947F0863E07C
:1031C00070E0C8011FD788E290E0C9C18B3409F4D0
:1031D000B8C108F0BFC08E3309F00ECF80919321A3
:1031E000F801618170E0680F711D660F771F660F2F
:1031F000771F6D5F7F4F41E050E0C8010E947F085C
:10320000F8018081811102C08DEB808361E070E064
:10321000C801F8D688E190E0A2C1F801818181114E
:1032200043C01092952180E090E099C1695F7F4F83
:1032300083E0769567958A95E1F76330710508F428
:10324000DBCE62507109C80108D78111C3CE81E07D
:1032500048C11092922180910122811141C1609157
:103260009121F4E06F9FB001112444E050E0C801C7
:1032700035C1803A09F454C0823AB9F1B9CEF801A7
:10328000F18080919621882359F080918E218823A6
:1032900039F080919021811103C0E0908F2102C00C
:1032A000E0909321FE1410F0F801E6C0C12CD12C5F
:1032B000F4E0FF9EB001112444E050E0C8018C0D01
:1032C0009D1D0E947F08F394EF1001C0F12C24E0B3
:1032D000C20ED11C80E1C816D10451F760E170E044
:1032E000C80190D680E990E03AC1F801F180F1E0A0
:1032F000FF15D0F680919321F816B0F68F2DA1DD41
:10330000882309F490C0C80102962091012221115E
:10331000E7C0F4E0FF9EB001112444E050E0DEC0BD
:10332000F801F180F1E0FF1508F0BECF8091932104
:10333000F81608F0B9CF8F2D84DD882309F473C007
:10334000F092912181E080939221CAC08B3109F0E3
:1033500053CE3EC0803621F0853A09F478C04CCE79
:103360006091932170E06D5F7F4F660F771F660F4E
:10337000771F48E050E0C8010E947F08F80186816D
:103380008B30B1F08E30A1F0108284E0818383E035
:10339000828381E0838384831582809193218431A9
:1033A00011F08EE001C08BE0F801868383E0878313
:1033B00068E070E0C80126D680E590E0D0C08D2D91
:1033C00040DD882381F18E2D3CDD882361F1C5CE5F
:1033D000E09093218E2D880F880FF0EFEF2EE80EEE
:1033E00044E050E068E071E0C80101960E940109E4
:1033F000F12CB701685F7F4F44E050E0CE010196A9
:103400000E947F089981F801818198130CC09A81EC
:103410008281981308C09B818381981304C09C818A
:103420008481981711F086E05CC081E08093902140
:10343000B701645F7F4F42E050E0C8010E947F08FF
:1034400062E070E0C801DED580E290E088C0F8015B
:1034500061812381848190E0A0E0B0E0DC019927C4
:103460008827922B22814C015D01822A19821A82BF
:103470001B821C82633010F0108235C0E62EF12CC6
:1034800080919321B701680F711D660F771F660F3A
:10349000771F43E050E0CE0101960E947F088981AA
:1034A0009A81AB81BC81880D991DAA1DBB1D8983A2
:1034B0009A83AB83BC830097A105B14010F084E0F0
:1034C00010C080919321B701680F711D660F771F9F
:1034D000660F771F43E050E0CE0101960E9401097C
:1034E0008AE0F801808384E090E039C06091932104
:1034F00070E06B5F7F4F660F771F660F771F40E2AC
:1035000050E0C8010E947F08BE016F5F7F4F80E2DC
:10351000FB0111928A95E9F740E250E0C8010E9450
:103520004C2B892B39F440E250E06AEC70E0C80182
:103530000E94622B60E270E0C80164D580E191E0F6
:103540000EC060919321660F660F605170E06B5F53
:103550007F4F41E050E0C8010E947F0857CEA096FF
:10356000CDBFDEBFDF91CF911F910F91FF90EF9004
:10357000DF90CF90BF90AF909F908F900895CF93A2
:10358000DF93EC0143E050E060E070E00E947F08D0
:1035900044E050E064E070E0CE010396DF91CF910B
:1035A0000C947F080F931F93CF93DF9300D0CDB778
:1035B000DEB78C01FC0190818181892798E88927F9
:1035C000928189278A83938184818927958189279C
:1035D00096818927898343E050E060E070E0C8016C
:1035E0000E94010941E050E063E070E0CE010296E4
:1035F0000E94010944E050E064E070E0C8010396D5
:103600000E94010941E050E068E070E0CE010196BF
:103610000E9401090F900F90DF91CF911F910F91A0
:10362000089520918C2130918D21FC0120833183DC
:10363000089580938C2190938D21089520918B2162
:10364000FC012083089580938B21089581E080936D
:1036500047208091002291E0873009F090E090931C
:103660009721873019F484E090E002C084E490E070
:1036700080939B2190939C2188E080939A210895C8
:1036800081E0809347208091002291E0873009F00B
:1036900090E090939721873019F482E090E002C087
:1036A00082E490E080939B2190939C2188E1809319
:1036B0009A21089581E080934720089508954F92BC
:1036C0005F926F927F928F929F92AF92BF92CF92B2
:1036D000DF92EF92FF920F931F93CF93DF93CDB7BB
:1036E000DEB76297CDBFDEBFFC016730710501F523
:1036F00080914720208191E0882311F0263219F033
:10370000223509F090E090FF13C020919B21909109
:103710009C21208391838450833020F481E0809326
:10372000472006C084E08093472020E130E002C0BB
:1037300020E030E02093982130939921232B09F049
:10374000A0C38F0180914720873009F486C140F4DF
:10375000853009F477C008F0EEC0843079F091C369
:10376000893009F4FEC208F4CFC18D3008F089C356
:103770007F016F01B6E0CB0ED11C23C3808183395A
:1037800009F0D6C080919721882309F456C043E000
:1037900050E060E070E0CE0102960E947F0898E859
:1037A0009983F8018181803219F0803769F025C052
:1037B00090833A8131832B8122838C8183832327D9
:1037C0009227982794835CC0F8018281883809F099
:1037D00070C393818A8198136CC394818B819813F1
:1037E00068C395818C81981364C384E0808361E011
:1037F00070E0C80107D485E069C0982F9F7009F078
:1038000058C382958F708250E82EF12C84E090E0AE
:103810006C01CE18DF0861E070E06C0F7D1F6E0D4B
:103820007F1DA601C8010E94592BF801EC0DFD1D5A
:103830009A818B81892798E86DC044E050E060E070
:1038400070E008C08081853909F072C044E050E022
:1038500063E070E0CE0101960E947F08D8011196C6
:103860008C91803281F43981F80130832A8121835F
:103870009B8192838C81838323279227892784834A
:1038800088E290E0C9C1803731F5D80112969C9149
:103890001297898198130DC313969C9113978A816F
:1038A000981307C314969C9114978B81981301C3A6
:1038B00015969C9115978C819813FBC280919A2143
:1038C0008C9361E070E0C8019DD386E0809347202F
:1038D00088E190E0A1C1982F9F7009F0EAC282951B
:1038E0008F708250E82EF12C84E090E06C01CE18AD
:1038F000DF0861E070E06C0F7D1F6E0D7F1DA6017B
:10390000C8010E94592BF801EC0DFD1D99818A8197
:1039100089279B8189279C818927808385E090E086
:103920008E199F09E3E0880F991FEA95E1F774C1AA
:1039300010924720A6C28081803509F4E8C090EA41
:10394000980F923008F07BC062E070E0CF0185D321
:10395000882309F472C0D8018C91803611F08AE373
:1039600001C080E3F801918197FF03C0907F8054EC
:1039700001C09C7FE82EF12CF0E19F9FE00CF11C30
:1039800011248091502090915120A0915220B0910B
:1039900053208F839887A987BA87409054205090EE
:1039A000552060905620709057208090582090901D
:1039B0005920A0905A20B0905B20809197219E01C1
:1039C000255F3F4F690144E050E0882319F063E030
:1039D00070E002C060E070E0C6010E947F0846E02F
:1039E00050E0B701CE0101960E947F084092AE21BF
:1039F0005092AF216092B0217092B1218092B22199
:103A00009092B321A092B421B092B52187E0809327
:103A10004720BE01695F7F4FF801AB01DB018D914B
:103A2000BD018193AC15BD05C9F720E030E0CE01A2
:103A30000196BFD380E290E0EFC081E0E9C0982F0B
:103A40009F77903329F0803A19F0805C833008F535
:103A500081E08093472084E0C5C0CF0124D4780161
:103A6000B4E0EB0EF11C6801E8E0CE0ED11C37D4B7
:103A7000D7019C918927F70181937F01EC15FD0502
:103A8000B1F7D80114969C9114978091AE219817A4
:103A900021F081E080934720F4C115969C91159701
:103AA0008091AF219813F5CF16969C91169780912F
:103AB000B0219813EECF17969C918091B121981365
:103AC000E8CF780162EBA62E61E2B62E76EBC72E28
:103AD00071E2D72E4501F50111915F0100D48127D4
:103AE000D7018D937D01D401EC91F0E0EB59FB4FB0
:103AF000149128D3D701A158BF4F81278C93CA14A2
:103B0000DB0441F788E028C18081803589F4818118
:103B100081110BC062E070E0C8019FD2882319F0C8
:103B200010924720C6C181E05DC0F801108272C0CA
:103B30007F015F01F4E0AF0EB11C6801D0D3D60164
:103B40009C918927F60181936F01EA15FB05B1F776
:103B500062E070E0C80181D2811103C0D3D391E04B
:103B600040C0F8018081803351F56181F0E16F9FA1
:103B7000B001112440E150E0C8010E947F0860E1DB
:103B800070E0C8013FD2680122E1C20ED11CD7010A
:103B90001C91A5D38127F70181937F01E12FF0E0EC
:103BA000EB59FB4F1491CED2D701A158BF4F8127BB
:103BB0008C93EC14FD0459F780E990E12DC0982F07
:103BC0009F7E903A71F561816093AD21611102C0D1
:103BD00099D31EC0803A49F489E08093472092D35C
:103BE0009AE08927D8018C9315C0803B99F4809185
:103BF000012281110AC0B0E16B9FB001112440E1A4
:103C000050E08DE991E20E9401097CD39AE0892776
:103C1000F801808384E090E080939821909399212B
:103C200030C1803C29F481818093AD218BE012C0AA
:103C3000813C51F481818093AD215AE0F52EF092C0
:103C4000472060D38F25E4CF823C39F48181809373
:103C5000AD218CE080934720D8CF90EA980F923026
:103C600008F017CF803611F08AE301C080E3D80155
:103C700011969C9197FF03C0907F805401C09C7F58
:103C8000082F10E0B0E19B9F000D111D11241B8631
:103C90001C861D861E8681E08B878091972144E0DB
:103CA00050E0882319F063E070E002C060E070E04B
:103CB000CE010F960E947F0846E050E0B801CE0189
:103CC00001960E947F088B858093AE218C8580931E
:103CD000AF218D858093B0218E858093B12160E4E2
:103CE00070E08EEA91E221D38091AE218093B221DF
:103CF0008091AF218093B3218091B0218093B42132
:103D00008091B1218093B52160E270E082EB91E275
:103D10000CD39E01295F3F4FAE01455F5F4FBE014F
:103D2000615F7F4FCE01019644D2FE013B96BE01FA
:103D3000695F7F4FCE010F962191D7012D937D01B1
:103D4000DB014D91BD01970121583F4FD9014C93A3
:103D5000E817F90789F787E08093472080E290E130
:103D60005BCF7F016F01B2E1CB0ED11CB8D2F7015E
:103D700090818927D7018D937D01CA16DB06B1F7A3
:103D800060E170E0C80169D1882391F0809101223F
:103D900081110BC06091AD21B0E16B9FB001112486
:103DA00040E150E0C8010E940109ACD29AE065C030
:103DB000A9D291E08927D8018C9388E0809347208D
:103DC00029CF8DD2F70190818927D7018D937D016D
:103DD000CA16DB06B1F764E070E0C8013ED1882363
:103DE00009F449C06091AD21B0E16B9FB00111248D
:103DF00040E150E08DE991E20E947F0890919D2181
:103E00008091A1218095981357C08091A521981386
:103E100053C090919E218091A221809598134CC00F
:103E20008091A621981348C090919F218091A32151
:103E30008095981341C08091A72198133DC090911F
:103E4000A0218091A4218095981336C08091A8214B
:103E5000981332C09091A9218091AA21809598133E
:103E60002BC08091AB21981327C08091AC21809505
:103E7000981322C024C046D291E08927F80180839C
:103E80009CCF80919821909199216296CDBFDEBF01
:103E9000DF91CF911F910F91FF90EF90DF90CF9026
:103EA000BF90AF909F908F907F906F905F904F905A
:103EB000089580E090E0B0CE25D295E07BCF809150
:103EC0009D2190919E21A0919F21B091A021F80168
:103ED0004081518162817381209147202B3029F4E8
:103EE000841B950BA60BB70B06C02A3021F4840F58
:103EF000951FA61FB71F80939D21C92EDA2EEB2E8A
:103F0000FF24C0929E218D012227332700939F21F9
:103F10004B2F5527662777274093A021E82FE09560
:103F2000E093A121EC2DE095E093A221E02FE09514
:103F3000E093A321E42FE095E093A4218093A521B1
:103F4000C092A6210093A7214093A82136CFCF93FA
:103F5000DF9320919721222371F0EC0143E050E0A0
:103F600060E070E00E947F0844E050E063E070E0B1
:103F7000CE01039604C044E050E060E070E0DF91C1
:103F8000CF910C947F08CF93DF931F92CDB7DEB70C
:103F900020919721222331F04091002250E060E0EF
:103FA00070E015C0FC013081218123273281232755
:103FB00033812327298344E050E060E070E00E94D1
:103FC000010941E050E064E070E0CE0101960E94FA
:103FD00001090F90DF91CF91089520919B2130919D
:103FE0009C21FC0120833183089580939B21909331
:103FF0009C21089520919A21FC01208308958093AB
:104000009A21089520E42093D00026EC2093D50037
:104010002093D40021E02093D000DC01680F791FA9
:10402000A617B70741F0ED91F0E0EB59FA4FE49194
:10403000E093D300F5CFE091D500F0E0EB59FA4FD3
:10404000E491EC93E091D400F0E0EB59FA4FE49165
:104050001196EC931092D000089520E42093D000A4
:1040600026EC2093D5002093D40021E02093D000AB
:10407000DC01680F791FA617B70741F0ED91F0E05A
:10408000EB59FA4FE491E093D300F5CFE091D500DE
:10409000F0E0EB59FA4FE4918C918E130AC0E09155
:1040A000D400F0E0EB59FA4FE49181E011969C9135
:1040B0009E1380E01092D00081700895A091B621E7
:1040C000B091B7214091B821F091B921E091BA2186
:1040D0003091BB212A2F217E9B2F90719227242F74
:1040E000207292272F2F247992272E2F2377922721
:1040F000232F2A739227292F22952F709227292F59
:10410000269526959227292F269550E060E070E0AD
:10411000BA01552744275B2B4A2B7695679557950F
:1041200047959227917098136068F093B621E093B9
:10413000B7213093B8214093B9215093BA216093AD
:10414000BB210895CF93DF9389EB91E2DC011196B7
:10415000EC911197AC91A295AF70B0E0A458BF4D0F
:10416000CE2FCF70D0E0C458DF4D3C912889232B4F
:10417000E295EF70F0E0E458FF4D30A1232BEC0105
:10418000EA81AE2FAF70B0E0A458BF4DD0968C91AD
:10419000922F982BE295EF70F0E0E454FF4D808170
:1041A000E92FE82BF0E0E45AFF4D8081DF91CF91B9
:1041B00008955F926F927F928F929F92AF92BF927B
:1041C000CF92DF92EF92FF920F931F93CF93DF93E3
:1041D0006901DC0106EB11E2C9EBD1E27C0186E06A
:1041E000E80EF11C11962C91119730E0322F222706
:1041F0008C91282B88E090E0B12CB694969520FF06
:1042000003C0EB2DE068BE2E21FD90683695279502
:1042100036952795815089F7F801B1928F019993CE
:104220001296EA16FB06F1F67B01EA0186015601B9
:10423000F4E0AF0EB11C9880F70171907F017924F2
:1042400088E0682E812C552453947CDF81118528C9
:10425000872D817033DF550C76946A946110F5CF09
:1042600089248992C114D10449F0E92DF0E0EB5979
:10427000FB4F949067DF8925F80180830F5F1F4F04
:10428000A016B106C1F6DF91CF911F910F91FF905B
:10429000EF90DF90CF90BF90AF909F908F907F90E6
:1042A0006F905F900895CF92DF92EF92FF92CF933D
:1042B000FC01C080D180E280F380C0E243DF9C2D0E
:1042C00091708927FBDEF694E794D794C794C15088
:1042D000A9F7CF91FF90EF90DF90CF9008951F93B3
:1042E000CF93DF93D8E0C0E02DDF182F80E0E6DE2B
:1042F000C6951111C068D150B9F78C2FDF91CF91BD
:104300001F9108951F93CF93DF93D4E0C0E01ADF8D
:10431000182F80E0D3DEC6951111C860D150B9F7CF
:104320008C2FDF91CF911F910895FC019B012150AB
:104330003109E0F082818D72982F92959F708927C4
:10434000982F969596958927982F9695408151811B
:10435000628173817695679557954795892780FD8A
:1043600070684083518362837383E1CF0895CF9255
:10437000DF92EF92FF920F931F93CF93DF9300D0C2
:1043800000D0CDB7DEB7FC019091D2216730710526
:1043900079F48081992311F0863211F0823541F44D
:1043A00081E080FF05C09091D0218091D12125C06E
:1043B0008F01923051F028F0933089F0943021F140
:1043C00061C080818235A1F05DC0908181E096322C
:1043D00019F0923509F080E080FF57C009C0808154
:1043E00091E0863219F0823509F090E090FFC0C06C
:1043F0009091D0218091D121F8019083818382E036
:104400008093D22180E13FC081E08093D22188E077
:10441000A4ECB1E201900D928A95E1F78091CC2154
:10442000811118C06091CE2170E0739594E0660F01
:10443000771F9A95E1F740E150E08CEB91E20E9402
:1044400001098091CE218F5F66E00E94622A9093DD
:10445000CE2118C06091CD2170E0695F7E4F84E06D
:10446000660F771F8A95E1F740E150E08CEB91E20F
:104470000E9401098091CD218F5F66E00E94622A2F
:104480009093CD2180E090E0B4C0933909F06AC0E8
:1044900044E050E060E070E0CE0101960E947F08A9
:1044A000F8018181803219F0803789F02EC039817E
:1044B000F80130832A8121839B8192838C818383BD
:1044C000232792278927848328E230E049C0F80116
:1044D00092818981981349C093818A81981345C03C
:1044E00094818B81981341C095818C8198133DC034
:1044F0008091CF21808361E070E0C80183DD83E09B
:104500008093D22128E130E02BC0982F9F7069F56D
:1045100082958F708250E82EF12C84E090E06C013F
:10452000CE18DF0861E070E06C0F7D1F6E0D7F1DFF
:10453000A601C8010E94592BF801EC0DFD1D9981BF
:104540008A8189279B8189279C818927808325E00F
:1045500030E02E193F0943E0220F331F4A95E1F75F
:10456000C90147C01092D2218DCF20E030E0F8CFB2
:104570008056823008F086CF62E070E0C8016DDDC1
:10458000882309F47FCF19821A821B821C8264E07F
:10459000CE0101960E94F60684E0F801ACEBB1E290
:1045A00001900D928A95E1F789819A81AB81BC8156
:1045B0008093C0219093C121A093C221B093C321C5
:1045C000F8018081813621F481E08093CC2102C002
:1045D0001092CC2184E08093D221FE013196D80143
:1045E000CE01059621912D93E817F907D9F780E2BE
:1045F0004ACF2496CDBFDEBFDF91CF911F910F919F
:10460000FF90EF90DF90CF90089581E08093D221CA
:1046100084E090E08093D0219093D12188E0809332
:10462000CF21089581E08093D22108950F931F93A5
:10463000CF93DF93CDB7DEB7EA97CDBFDEBF07E0FC
:1046400014E29FD2F80181938F01F4E20F301F072B
:10465000C1F70E94190E10D3882309F404C1809178
:10466000072490910824953009F478C030F49130F3
:1046700091F168F0933079F1F6C0983009F4CDC02B
:10468000993009F4D2C0963009F0EDC07BC0803873
:1046900021F0823809F0E7C008C01091032480910E
:1046A0000424882399F0126011C080910B248F702C
:1046B000863008F0D8C085D2E0911124F091122400
:1046C000118112FB112710F980E07BD2EFD2812FEC
:1046D00068D280E0A7C0282F2D7F09F0C4C08823AE
:1046E00019F0823061F0BFC080910924813009F057
:1046F000BAC0933009F080E0809304242AC08091EE
:104700000924811126C0E0910B241E2F1F708FEF0A
:10471000810F853008F0A7C0812F53D280910824E3
:10472000833011F4EFD215C0E0911124F0911224DE
:1047300081818B7F818324E8129FF0011124EB5A41
:10474000FB4D1082E0911124F091122480818E7F24
:10475000808380E036D2AAD298D385C0811183C0ED
:10476000109109241F77A2D290D360D28823E9F355
:104770001093C304111102C082E001C083E0809352
:10478000062471C08058823008F06DC080910924E1
:1047900090910A248C3DE3E09E0761F583E08A83D3
:1047A0008AE389834FB7F894DE01139620E038E05E
:1047B00052E05093CA01E32FF0E0E4911092CA0155
:1047C00020FF03C0E295EF703F5FEF708E2F90E007
:1047D000EA3010F0C79601C0C0968D939D932F5F6D
:1047E0002C3139F74FBF62D26AE370E0CE010196F7
:1047F000A6D011C060910B2470910C24AE014F5FC4
:104800005F4F0E94E2058C01892B69F14FD2B801FC
:1048100089819A8110D1A6D126C0803821F546D24F
:1048200080910224BED185D197CF81111CC0809187
:10483000092490910A2499270297ACF437D28091E9
:1048400009248093022421D380910224811106C07F
:104850008091C304811102C081E001C084E0809393
:1048600006240E94150E08D2882311F01FD24AD2C6
:10487000EA96CDBFDEBFDF91CF911F910F910895D2
:104880000895CF9380910624882351F0C09113247A
:1048900080E097D1F1D18111C9DE8C2FCF9191C1E8
:1048A000CF910895CF92DF92EF92FF920F931F93D3
:1048B000CF93DF93EC018B017A01FDD2811136C0D9
:1048C000E114F10439F0F70180819181081B190B83
:1048D000C80FD91FC12CD12C0115110531F18091C0
:1048E0000F2490911024FC01EF5BFF4F2081319742
:1048F0008081281790F01DD1C4DFE114F10449F044
:10490000F70180819181C80ED91EC082D18285E0D5
:104910000DC0D1D2882301F309C0899142D1015041
:104920001109FFEFCF1ADF0AD7CF80E0DF91CF91D7
:104930001F910F91FF90EF90DF90CF900895DF923D
:10494000EF92FF920F931F93CF93DF93D82FC92F2E
:104950008B0180911324806834D180910D24909133
:104960000E248017910728F00115110519F4E1D0E4
:1049700001C08C01ED2EFC2ED12C0115110509F47E
:1049800040C080910624811102C082E04CC0853075
:1049900011F483E048C070D1882311F081E043C056
:1049A00051D181113CC042D1882339F32091132485
:1049B00080910F2490911024FC0127FF05C0EF5B2C
:1049C000FF4FC081D0E013C0E05CFF4FC081319643
:1049D0008081D0E0C81BD1090AC0C830D10550F48D
:1049E000F70181917F01DDD0015011092196011558
:1049F000110599F7DD24D394289709F0D12C99D08B
:104A0000BCCFD110BECF0BC080910624882309F4FF
:104A1000BCCF853009F4BDCF2FD18111BFCF12D1CA
:104A2000882391F380E0DF91CF911F910F91FF9048
:104A3000EF90DF900895DF92EF92FF920F931F9314
:104A4000CF93DF93D82FC92F8B01809113248068D7
:104A5000B8D080910D2490910E248017910728F0F2
:104A60000115110519F465D001C08C01ED2EFC2E45
:104A7000D12C0115110509F442C080910624811141
:104A800002C082E04EC0853011F483E04AC0F4D009
:104A9000882311F081E045C0D5D081113EC0C6D039
:104AA000882339F32091132480910F2490911024AE
:104AB000FC0127FF05C0EF5BFF4FC081D0E015C0B0
:104AC000E05CFF4FC08131968081D0E0C81BD109E6
:104AD0000CC0C830D10560F4F701849162D0FFEFBB
:104AE000EF1AFF0A0150110921960115110589F7E6
:104AF000DD24D394289709F0D12C1BD0BACFD11044
:104B0000BCCF0BC080910624882309F4BACF85302E
:104B100009F4BBCFB1D08111BDCF94D0882391F3DC
:104B200080E0DF91CF911F910F91FF90EF90DF9088
:104B30000895E0911124F0911224A0910F24B091D6
:104B40001024AF5BBF4F8C9190E082839383808170
:104B50008D798083E0910F24F0911024EF5BFF4F5B
:104B600010820895E0911124F091122480818D79B2
:104B70008083E0910F24F0911024EF5BFF4F1082AF
:104B8000089580910F2490911024FC01EF5BFF4F5A
:104B9000208131E0320F3083FC01E20FF11D808172
:104BA000089520910F2430911024F901EF5BFF4FFD
:104BB000908141E0490F4083F901E90FF11D8083A5
:104BC000089580931324482F4F7050E06091C604DD
:104BD0007091C7049A0194E0220F331F9A95E1F770
:104BE000E4E887FF11C0E49FC001E59F900D112408
:104BF0008A5A9B4D80930F2490931024C9010896E4
:104C00009B01280F391F0DC0E49FC001E59F900D47
:104C100011248C5E9B4D80930F2490931024260FBB
:104C2000371F209311243093122408958091132468
:104C30008068C7DFE0911124F0911224808186956D
:104C400081700895809113248F77BBDFA091112488
:104C5000B09112248C9185FF0DC0E0910F24F0914A
:104C6000102412968D919C911397E05CFF4F8083E6
:104C700081E0089580E00895809113248F77A1DF6B
:104C8000A0911124B09112248C9184FF0DC0E09169
:104C90000F24F091102412968D919C911397E05C53
:104CA000FF4F808381E0089580E008958091132470
:104CB0008F7787DFE0911124F091122480818D7825
:104CC0008083E0911124F09112248081816080839F
:104CD000E0910F24F0911024EF5BFF4F1082809140
:104CE000132480686EDFE0911124F09112248081FA
:104CF00081608083E0910F24F0911024EF5BFF4FDF
:104D000010820895E0911124F09112248181846031
:104D10008183E0911124F09112248181807C803480
:104D200059F48091132480584CDFE0911124F091C4
:104D3000122481818460818308951F93CF93DF9330
:104D4000C82F162FD42F3DDFE0911124F0911224AB
:104D50001182E0911124F09112248C2F881F882752
:104D6000881F880F8083E0911124F0911224118311
:104D7000E0911124F09112241282138220910F24C9
:104D80003091102424833583CC0FCC0BCD23F90133
:104D9000E05CFF4FC0833196108281E0DF91CF91BC
:104DA0001F910895CF92DF92EF92FF920F931F937E
:104DB000CF93DF93C62E8C01D12CDC1409F43FC0B5
:104DC000F801D081D11104C0D3940B5F1F4FF5CFF0
:104DD000F801E180F28093818481823010F488E0D0
:104DE00001C088E128E030E0C0E02E153F0520F446
:104DF000CF5F220F331FF9CFC82B8D2F8F708630D6
:104E000010F080E01DC0CF7EF1E4EF16F104C8F78A
:104E1000992321F0913021F4C06C0AC0C06403C012
:104E2000C068911105C04E2D6C2F80E88D0F85DF75
:104E30004E2D6C2F8D2F81DF8111C6CFE2CF81E007
:104E4000DF91CF911F910F91FF90EF90DF90CF9066
:104E5000089580E090E0E091C604F091C7049C01C1
:104E600044E0220F331F4A95E1F7E20FF31F11864A
:104E70004091C6045091C704FA01E20FF31F11825A
:104E800001968630910539F708958091072487FFB0
:104E90000DC0D8DE811105C0809106248111F9CFA3
:104EA00009C060CE80910624882321F0BFDE8823CC
:104EB000C9F33FCE08950F931F93CF93E091C6049B
:104EC000F091C704E05AFF4F00811181C4E6809140
:104ED000132487FF0AC0AADE811105C08091062431
:104EE000811105C022C080E025C0ACDEF5CF853041
:104EF000F1F0E0911124F0911224818182FD19C01A
:104F0000E091C604F091C704E05AFF4F808191817F
:104F10000817190711F48C01DACF2FEF2C0FCC23CF
:104F200011F0C22FF8CF84E005C082E003C083E017
:104F300001C081E0CF911F910F91089563D069D096
:104F4000E0ECF4E081818E7F818380818F778083A4
:104F5000109205240895CF93DF93E0E4F0E01482EB
:104F60008481816084834ED054D0C0ECD4E08881A9
:104F70008F778883888180688883109206241092B6
:104F80000224109204241092032488818064888370
:104F900048E068E480E8D1DE48E068E480E0CDDE07
:104FA000888580648887898181608983DF91CF913A
:104FB0000895CF93DF933FB7F894C0ECD1E022E09F
:104FC0002A87EAE1F0E0E491A0ECB4E0DA96EC9311
:104FD000DA97EBE1F0E0E491DB96EC93DB971A864D
:104FE0008DE297E28E7F16968D939C93179785E1BD
:104FF0008C9318962C933FBF81E080930524DF911A
:10500000CF91A9CFE0ECF4E0808583708087118692
:105010000895E0ECF4E08FEF8287848708951F9273
:105020000F920FB60F9211242F933F934F935F93DC
:105030006F937F938F939F93AF93BF93EF93FF9360
:105040008091CA0487FF08C08091C80487FF04C00C
:1050500080E88093CA0414DC8091CA0486FF07C0EC
:1050600080E48093CA04109206240E94140E80915A
:10507000CA0485FF14C080E28093CA048091022490
:10508000882311F084E007C08091C304811102C01D
:1050900081E001C083E0809306240E94130E80917A
:1050A000CA0484FF14C080E18093CA0482E0809324
:1050B0000624109202241092C304CBDE48E068E478
:1050C00080E83BDE48E068E480E037DED9DBFF9132
:1050D000EF91BF91AF919F918F917F916F915F9170
:1050E0004F913F912F910F900FBE0F901F901895E9
:1050F000CF93DF93EC01FC0170968BE0DF011D92F2
:105100008A95E9F782E08C83898783E08E8761E066
:10511000CE01019647DE882361F061E0CE0106965C
:1051200041DE882331F061E0CE010B96DF91CF9113
:1051300039CE80E0DF91CF9108950F931F93CF93E5
:10514000DF93209106242430E1F4FC0104891589C1
:1051500026893789012B022B032B99F0EB018181E2
:1051600030DDFE0101900020E9F73197BF016C1B93
:105170007D0B40E050E0CE01DF91CF911F910F9168
:1051800091CB82E0DF91CF911F910F9108950F9302
:105190001F93CF93DF93209106242430B1F4FC01B8
:1051A0000489158926893789012B022B032B69F085
:1051B0008A01EB01818105DD40E050E0B801CE01BC
:1051C000DF91CF911F910F916DCB82E0DF91CF9155
:1051D0001F910F9108950F931F93CF932091062451
:1051E000243009F5FC010489158926893789012BAA
:1051F000022B032BC1F0C62F8181E3DC80910F24A9
:1052000090911024FC01EF5BFF4F2081319780814A
:10521000281720F48C2FC5DC80E006C08ADC4BDE2A
:105220008823C1F301C082E0CF911F910F910895AF
:10523000CF93DF9320910624243091F5FC0144891B
:10524000558966897789452B462B472B49F1818102
:10525000B8DC8091132420910F2430911024F9019F
:1052600087FF05C0EF5BFF4F808190E008C0E05CE6
:10527000FF4F80813196408190E0841B9109892BFA
:1052800069F0F901EF5BFF4FD0813197C08151DCAC
:10529000DC1720F010DE811104C04BDC80E001C07F
:1052A00082E0DF91CF910895CF93DF932091062480
:1052B000243099F4FC014489558966897789452B06
:1052C000462B472B51F0EC0181817BDCAFDC88233E
:1052D00021F0CE01DF91CF91ABCFDF91CF91089537
:1052E000CF93DF9320910624243019F08FEF9FEFA6
:1052F00046C0FC014489558966897789452B462B30
:10530000472BA1F386815DDC9DDC882379F38091B6
:10531000132420910F2430911024F90187FF05C038
:10532000EF5BFF4F808190E008C0E05CFF4F808121
:105330003196208190E0821B9109892B21F021DC9C
:10534000C82FD0E002C0CFEFDFEF2091132480916F
:105350000F2490911024FC0127FF05C0EF5BFF4F45
:10536000208130E008C0E05CFF4F208131968081D1
:1053700030E0281B3109232B09F4F4DBCE01DF9147
:10538000CF91089508950895FF920F931F93CF939F
:10539000DF93EC0171DC882309F48EC0888190E0F2
:1053A00020910B2430910C242817390709F084C070
:1053B00080910824813259F018F4803249F17CC080
:1053C000823209F457C0833209F467C075C08091F6
:1053D0000724813A09F070C069DC28DC8823E9F3EE
:1053E0008C89FD880E891F89DCDB8F2DDADB802F0D
:1053F000D8DB812FD6DB888DD4DB898DD2DB8A8DFB
:10540000D0DB97DBDF91CF911F910F91FF903DCDC6
:1054100080910724813209F04FC048DC13DC8111F0
:1054200005C0809106248111F9CF46C0AADBF82E71
:10543000A8DB182FA6DB082FA4DB402F50E060E08C
:1054400070E0BA0155274427782B4F29512B4C8BFC
:105450005D8B6E8B7F8B95DB888F93DB898F91DBE8
:105460008A8F80DB12DDCE01DF91CF911F910F91EA
:10547000FF9088CF809107248132F1F417DC05DD9D
:105480008091092490910A24888B998BCE01DF9119
:10549000CF911F910F91FF9075CF8091072481329A
:1054A00059F404DCF2DC60910924CE01DF91CF9144
:1054B0001F910F91FF9067CFDF91CF911F910F91B7
:1054C000FF900895991B79E004C0991F961708F082
:1054D000961B881F7A95C9F780950895AA1BBB1B58
:1054E00051E107C0AA1FBB1FA617B70710F0A61BE4
:1054F000B70B881F991F5A95A9F780959095BC0105
:10550000CD01089597FB072E16F4009406D077FD81
:1055100008D0E4DF07FC05D03EF4909581959F4FBD
:105520000895709561957F4F0895A1E21A2EAA1BE8
:10553000BB1BFD010DC0AA1FBB1FEE1FFF1FA21743
:10554000B307E407F50720F0A21BB30BE40BF50B40
:10555000661F771F881F991F1A9469F760957095C9
:10556000809590959B01AC01BD01CF0108950FD0AE
:10557000A59F900DB49F900DA49F800D911D1124A7
:105580000895B7FFF4CFF3DF821B930B0895A29F1A
:10559000B001B39FC001A39F700D811D1124911D07
:1055A000B29F700D811D1124911D08958F929F92BD
:1055B000AF92BF92CF92DF92EF92FF92CF93DF93A1
:1055C000EC01688179818A819B8161157105810572
:1055D000910521F464E279ED8BE597E02DE133EF5D
:1055E00041E050E083D349015A019B01AC01A7EA95
:1055F000B1E4BDDF6B017C01ACEEB4EFA501940119
:10560000C2DFDC01CB018C0D9D1DAE1DBF1DB7FFA0
:1056100003C00197A109B04888839983AA83BB83FB
:105620009F77DF91CF91FF90EF90DF90CF90BF9069
:10563000AF909F908F900895B9CF88E490E2B6CF55
:10564000A0E0B0E08093482090934920A0934A20A6
:10565000B0934B200895FB01DC0102C005900D9230
:1056600041505040D8F70895FB01DC018D91059021
:1056700080190110D9F3990B0895FB01DC01415009
:10568000504048F005900D920020C9F701C01D92CE
:1056900041505040E0F70895FB01DC0104C08D91BA
:1056A0000190801921F441505040C8F7881B990B94
:1056B0000895FB01DC0102C001900D924150504061
:1056C000D8F70895DC0101C06D9341505040E0F7D8
:1056D0000895AEE0B0E0EEE6FBE232C30D891E892C
:1056E0008F89988D2EE02C8309831A8397FF02C03F
:1056F00080E090E801978D839E83AE01455E5F4F09
:10570000698D7A8DCE01019611D04D815E8157FD54
:105710000AC02F813885421753070CF49A01F8010B
:10572000E20FF31F10822E96E4E023C3ABE0B0E05B
:10573000EBE9FBE2F7C26C017B018A01FC011682F6
:105740001782838181FFBFC1CE0101963C01F60122
:105750009381F70193FD859193FF81917F018823C8
:1057600009F4ADC1853239F493FD859193FF8191A0
:105770007F01853221F4B60190E0C0D1E8CF912CB1
:10578000212C312CFFE1F315D8F08B3279F038F46D
:10579000803279F08332A1F4232D20611DC08D3237
:1057A00061F0803369F4232D216016C0832D82605F
:1057B000382EE32DE4603E2E2AC0F32DF8601DC084
:1057C00037FC2DC020ED280F2A3040F08E32B9F47E
:1057D00036FC75C1232D2064322E19C036FE06C05A
:1057E0008AE0989E200D1124922E11C0EAE02E9E90
:1057F000200D1124222EF32DF0623F2E08C08C368E
:1058000021F4832D8068382E02C0883641F4F701D8
:1058100093FD859193FF81917F018111B3CF982FE3
:105820009F7D9554933028F40C5F1F4F9FE399831D
:105830000DC0833631F0833771F0833509F055C0E0
:1058400020C0F801808189830E5F1F4F88248394D4
:10585000912C530112C02801F2E04F0E511CF801A7
:10586000A080B18036FE03C0692D70E002C06FEFEA
:105870007FEFC50138D14C018201F32DFF773F2E18
:1058800015C0280122E0420E511CF801A080B18011
:1058900036FE03C0692D70E002C06FEF7FEFC501D7
:1058A00017D14C01F32DF0683F2E820133FC19C053
:1058B000822D90E088169906A0F4B60180E290E06F
:1058C0001DD12A94F5CFF50137FC859137FE8191E2
:1058D0005F01B60190E012D121102A9421E0821AD2
:1058E00091088114910479F7E1C0843611F089366A
:1058F00039F5F80137FE07C060817181828193819B
:105900000C5F1F4F08C060817181072E000C880B4F
:10591000990B0E5F1F4FF32DFF763F2E97FF09C0A7
:1059200090958095709561957F4F8F4F9F4FF06850
:105930003F2E2AE030E0A3011DD1882E861844C0F6
:10594000853731F4232D2F7EB22E2AE030E025C09A
:10595000932D997FB92E8F36C1F018F4883579F0E0
:10596000AEC0803719F0883721F0A9C0E92FE06177
:10597000BE2EB4FE0DC0FB2DF460BF2E09C034FE58
:105980000AC0292F2660B22E06C028E030E005C0EC
:1059900020E130E002C020E132E0F801B7FE07C0AC
:1059A00060817181828193810C5F1F4F06C060818D
:1059B000718180E090E00E5F1F4FA301DBD0882E45
:1059C0008618FB2DFF773F2E36FE0DC0232D2E7F30
:1059D000A22E891458F434FE0BC032FC09C0832D6A
:1059E0008E7EA82E05C0B82CA32C03C0B82C01C0F5
:1059F000B92CA4FE0FC0FE01E80DF11D808180339B
:105A000021F49A2D997EA92E09C0A2FE06C0B39456
:105A1000B39404C08A2D867809F0B394A3FC10C017
:105A2000A0FE06C0B21480F4280C922C9B180DC066
:105A3000B21458F4B60180E290E060D0B394F8CF8D
:105A4000B21418F42B1802C0982C212CA4FE0FC0FD
:105A5000B60180E390E052D0A2FE16C0A1FC03C0C4
:105A600088E790E002C088E590E0B6010CC08A2D7E
:105A7000867851F0A1FE02C08BE201C080E2A7FC53
:105A80008DE2B60190E03AD0891430F4B60180E39B
:105A900090E034D09A94F8CF8A94F301E80DF11D88
:105AA0008081B60190E02AD08110F6CF222009F43F
:105AB0004ECEB60180E290E021D02A94F7CFF601D5
:105AC0008681978102C08FEF9FEF2B96E2E143C161
:105AD000FC010590615070400110D8F780959095B9
